:020000040000fa
:080000000002040000000000f2
:020000040000fa
:0400080032030000bf
:020000040000fa
:04000c0032030000bb
:020000040000fa
:0400100032030000b7
:020000040000fa
:0400140032030000b3
:020000040000fa
:0400180032030000af
:020000040000fa
:04001c0032030000ab
:020000040000fa
:0400200032030000a7
:020000040000fa
:0400240032030000a3
:020000040000fa
:04002800320300009f
:020000040000fa
:04002c0002030000cb
:020000040000fa
:040030003203000097
:020000040000fa
:04003400e8020000de
:020000040000fa
:04003800320300008f
:020000040000fa
:04003c00320300008b
:020000040000fa
:040040003203000087
:020000040000fa
:04004400c8020000ee
:020000040000fa
:04004800320300007f
:020000040000fa
:04004c00320300007b
:020000040000fa
:040050003203000077
:020000040000fa
:040054003203000073
:020000040000fa
:040058001e03000083
:020000040000fa
:04005c00320300006b
:020000040000fa
:040060003203000067
:020000040000fa
:040064003203000063
:020000040000fa
:04006800320300005f
:020000040000fa
:04006c00320300005b
:020000040000fa
:040070003203000057
:020000040000fa
:040074003203000053
:020000040000fa
:04007800320300004f
:020000040000fa
:04007c00320300004b
:020000040000fa
:040080003203000047
:020000040000fa
:040084003203000043
:020000040000fa
:04008800320300003f
:020000040000fa
:04008c00320300003b
:020000040000fa
:040090003203000037
:020000040000fa
:040094003203000033
:020000040000fa
:04009800320300002f
:020000040000fa
:04009c00320300002b
:020000040000fa
:0400a0003203000027
:020000040000fa
:0400a4003203000023
:020000040000fa
:0400a800320300001f
:020000040000fa
:0400ac00320300001b
:020000040000fa
:0400b0003203000017
:020000040000fa
:0400b4003203000013
:020000040000fa
:0400b800320300000f
:020000040000fa
:0400bc00320300000b
:020000040000fa
:0400c0003203000007
:020000040000fa
:0400c4003203000003
:020000040000fa
:0400c80032030000ff
:020000040000fa
:0400cc0032030000fb
:020000040000fa
:0400d00032030000f7
:020000040000fa
:0400d40032030000f3
:020000040000fa
:0400d80032030000ef
:020000040000fa
:0400dc0032030000eb
:020000040000fa
:0400e00032030000e7
:020000040000fa
:0400e40032030000e3
:020000040000fa
:0400e80032030000df
:020000040000fa
:0400ec0032030000db
:020000040000fa
:0400f00032030000d7
:020000040000fa
:0400f40032030000d3
:020000040000fa
:0400f80032030000cf
:020000040000fa
:0400fc0032030000cb
:020000040000fa
:0401000032030000c6
:020000040000fa
:0401040032030000c2
:020000040000fa
:0401080032030000be
:020000040000fa
:04010c0032030000ba
:020000040000fa
:0401100032030000b6
:020000040000fa
:0401140032030000b2
:020000040000fa
:0401180032030000ae
:020000040000fa
:04011c0032030000aa
:020000040000fa
:0401200032030000a6
:020000040000fa
:0401240032030000a2
:020000040000fa
:04012800320300009e
:020000040000fa
:04012c00320300009a
:020000040000fa
:040130003203000096
:020000040000fa
:040134003203000092
:020000040000fa
:04013800320300008e
:020000040000fa
:04013c00320300008a
:020000040000fa
:040140003203000086
:020000040000fa
:040144003203000082
:020000040000fa
:04014800320300007e
:020000040000fa
:0402080032030000bd
:020000040000fa
:04020c0032030000b9
:020000040000fa
:0402100032030000b5
:020000040000fa
:0402140032030000b1
:020000040000fa
:0402180032030000ad
:020000040000fa
:04021c0032030000a9
:020000040000fa
:0402200032030000a5
:020000040000fa
:0402240032030000a1
:020000040000fa
:04022800320300009d
:020000040000fa
:04022c0002030000c9
:020000040000fa
:040230003203000095
:020000040000fa
:04023400e8020000dc
:020000040000fa
:04023800320300008d
:020000040000fa
:04023c003203000089
:020000040000fa
:040240003203000085
:020000040000fa
:04024400c8020000ec
:020000040000fa
:04024800320300007d
:020000040000fa
:04024c003203000079
:020000040000fa
:040250003203000075
:020000040000fa
:040254003203000071
:020000040000fa
:040258001e03000081
:020000040000fa
:04025c003203000069
:020000040000fa
:040260003203000065
:020000040000fa
:040264003203000061
:020000040000fa
:04026800320300005d
:020000040000fa
:04026c003203000059
:020000040000fa
:040270003203000055
:020000040000fa
:040274003203000051
:020000040000fa
:04027800320300004d
:020000040000fa
:04027c003203000049
:020000040000fa
:040280003203000045
:020000040000fa
:040284003203000041
:020000040000fa
:04028800320300003d
:020000040000fa
:04028c003203000039
:020000040000fa
:040290003203000035
:020000040000fa
:040294003203000031
:020000040000fa
:04029800320300002d
:020000040000fa
:04029c003203000029
:020000040000fa
:0402a0003203000025
:020000040000fa
:0402a4003203000021
:020000040000fa
:0402a800320300001d
:020000040000fa
:0402ac003203000019
:020000040000fa
:0402b0003203000015
:020000040000fa
:0402b4003203000011
:020000040000fa
:0402b800320300000d
:020000040000fa
:0402bc003203000009
:020000040000fa
:0402c0003203000005
:020000040000fa
:0402c4003203000001
:020000040000fa
:0402c80032030000fd
:020000040000fa
:0402cc0032030000f9
:020000040000fa
:0402d00032030000f5
:020000040000fa
:0402d40032030000f1
:020000040000fa
:0402d80032030000ed
:020000040000fa
:0402dc0032030000e9
:020000040000fa
:0402e00032030000e5
:020000040000fa
:0402e40032030000e1
:020000040000fa
:0402e80032030000dd
:020000040000fa
:0402ec0032030000d9
:020000040000fa
:0402f00032030000d5
:020000040000fa
:0402f40032030000d1
:020000040000fa
:0402f80032030000cd
:020000040000fa
:0402fc0032030000c9
:020000040000fa
:0403000032030000c4
:020000040000fa
:0403040032030000c0
:020000040000fa
:0403080032030000bc
:020000040000fa
:04030c0032030000b8
:020000040000fa
:0403100032030000b4
:020000040000fa
:0403140032030000b0
:020000040000fa
:0403180032030000ac
:020000040000fa
:04031c0032030000a8
:020000040000fa
:0403200032030000a4
:020000040000fa
:0403240032030000a0
:020000040000fa
:04032800320300009c
:020000040000fa
:04032c003203000098
:020000040000fa
:040330003203000094
:020000040000fa
:040334003203000090
:020000040000fa
:04033800320300008c
:020000040000fa
:04033c003203000088
:020000040000fa
:040340003203000084
:020000040000fa
:040344003203000080
:020000040000fa
:04034800320300007c
:020000040000fa
:10040000cf8120000e7f22000e0188000000000036
:10041000000020000000e000020032000001200087
:100420002002880014000700900007000000e00090
:1004300003003a0060932000010020000200370012
:100440000000200001002000810f70000100320038
:1004500014000700000020000000e000020032004d
:10046000000002000000000000090200000000007f
:100470000040da000000fe004440a9000000200017
:100480000000e0000300320000002000a00188000e
:100490004440a800000006008a1f78008b1f7800e7
:1004a0000000060091018800800478000000eb0045
:1004b0001a003700e284440032a0b4009905ba0063
:1004c000e284440032a0b4009906ba00e2844400f9
:1004d00032a0b4000006eb00476fde00fd07b2005b
:1004e000636ce10003003a00ebff07000000eb0043
:1004f0000a003700606ce10004003a00005deb0088
:100500008b05e900fdff3e00040037006168e10053
:10051000010032000086eb000b00070019c7ba008b
:100520001905ba000e04e00003003a000a00e000da
:10053000e0ff3a0000000600fe07b2009e018800be
:100540008a047800f5ff3700395dba008b05e900b1
:100550000c003200295dba008b05e900080032006a
:100560000c00e00003003a00e284440032a0b40032
:10057000f5ff370019ddba008b05e900faff3a00f4
:100580008904e800e184440032a0b40000000600c1
:10059000809fbe003400f80000002000a001880009
:1005a0000000fa0084e0a9000040800011408000b3
:1005b00061004000e0804800004088001140880051
:1005c0000080fa003400f9004f00be000040060031
:1005d000801f78003400f80000002000a00188008f
:1005e0000000fa008460a90005e1a90010002000c5
:1005f000904088000080fa003400f9004f00780035
:10060000004006003400f800881f78000800200031
:10061000a80188004f0478000000fa008420a90097
:1006200005e1a9000021ef0005e1a8001228ef0074
:100630000080fa003400f900004006003400f800a1
:10064000881f780008002000a80188004f04780067
:100650000000fa008580a9000080fa003400f9004b
:10066000004006000040da000000fe000000050027
:020000040000fa
:100670000200fa00000f7800100323009e007800ab
:10068000808f500002003a0010c4b300e50037002c
:10069000000323009e007800808f500002003a0083
:1006a00020c4b300df003700001323009e00780051
:1006b000808f500002003a0030c4b300d9003700e8
:1006c000000323009e007800808f500002003a0053
:1006d00040c4b300d3003700000320009e00780020
:1006e000808f500002003a0050c4b300cd003700a4
:1006f000001323009e007800808f500002003a0013
:1007000060c4b300c7003700001323009e007800c8
:10071000808f500002003a0070c4b300c10037005f
:10072000000323009e007800808f500002003a00f2
:1007300080c4b300bb003700000323009e00780094
:10074000808f500002003a0090c4b300b50037001b
:10075000101323009e007800808f500002003a00a2
:10076000a0c4b300af003700100323009e00780040
:10077000808f500002003a00b0c4b300a9003700d7
:10078000000323009e007800808f500002003a0092
:10079000c0c4b300a3003700101323009e007800ec
:1007a000808f500002003a00d0c4b3009d00370093
:1007b000001323009e007800808f500002003a0052
:1007c000e0c4b30097003700101323009e007800a8
:1007d000808f500002003a00f0c4b300910037004f
:1007e000001323009e007800808f500002003a0022
:1007f00000c5b3008b003700100323009e00780073
:10080000808f500002003a0010c5b3008500370009
:10081000001323009e007800808f500002003a00f1
:1008200020c5b3007f003700000323009e0078003e
:10083000808f500002003a0030c5b30079003700c5
:10084000100320009e007800808f500002003a00c4
:1008500040c5b30073003700100323009e007800ea
:10086000808f500002003a0050c5b3006d00370081
:10087000100323009e007800808f500002003a0091
:1008800060c5b30067003700101323009e00780096
:10089000808f500002003a0070c5b300610037003d
:1008a000100323009e007800808f500002003a0061
:1008b00080c5b3005b003700101323009e00780052
:1008c000808f500002003a0090c5b30055003700f9
:1008d000000323009e007800808f500002003a0041
:1008e000a0c5b3004f003700101323009e0078000e
:1008f000808f500002003a0010c3b3004900370057
:10090000101323009e007800808f500002003a00f0
:1009100020c3b30043003700101323009e0078006b
:10092000808f500002003a0030c3b3003d00370012
:10093000100323009e007800808f500002003a00d0
:1009400040c3b30037003700000323009e00780047
:10095000808f500002003a0050c3b30031003700ce
:10096000000323009e007800808f500002003a00b0
:1009700060c3b3002b003700000323009e00780003
:10098000808f500002003a0070c3b300250037008a
:10099000000323009e007800808f500002003a0080
:1009a00080c3b3001f003700001323009e007800af
:1009b000808f500002003a0090c3b3001900370046
:1009c000101323009e007800808f500002003a0030
:1009d00000c3b30013003700100323009e0078000b
:1009e000808f500002003a00e0c2b3000d003700d3
:1009f000101323009e007800808f500002003a0000
:100a0000c0c2b30007003700000323009e00780037
:100a1000808f500002003a00f0c3b300010037009d
:100a2000000037000080fa00000006000200fa0013
:100a3000000f7800020037007e3e09000000000031
:100a40001e00780000f0a7000000ea000000ea00a5
:100a50004f00de00004078001e0fe9000004e000b7
:100a6000f5ff3a000080fa00000006000200fa00dc
:100a7000004f78008a40a9001602a800000000007c
:100a8000b0108000610060000000e000fcff3a0050
:100a90008a40a900c00720009010880000000000d4
:100aa00050048000640060000000e000fcff3200a1
:100ab0008a40a9001222ef000000000050048000cc
:100ac000640060000000e000fcff32008a40a900e2
:100ad0001e00fb0090108800000000005004800001
:100ae000640060000000e000fcff32008a40a900c2
:100af0001642a80000000000b010800064006000f2
:100b00000000e000fcff3a000080fa000000060050
:100b10000000fa0017e2a900d0092000a010880008
:100b20008a40a90017e2a80020032000bfff0700a9
:100b300080c3b300cdff070090c3b300cbff070015
:100b400040c1b300c9ff070000c7b300c7ff0700db
:100b500060c5b300c5ff0700c0c6b300c3ff0700f0
:100b6000800c2000b1ff070080c3b300bfff070067
:100b7000c0c0b300bdff070010c0b300bbff07003b
:100b800010002000a9ff07000080fa000000060006
:100b90000200fa00004f78008a40a9001602a8005f
:100ba00000000000b0108000610060000000e00064
:100bb000fcff3a008a40a900c0072000901088007e
:100bc0000000000050048000640060000000e000ad
:100bd000fcff32008a40a900000420009010880029
:100be0000000000050048000640060000000e0008d
:100bf000fcff32008a40a9001e00fb009010880014
:100c00000000000050048000640060000000e0006c
:100c1000fcff32008a40a9001642a8000000000034
:100c2000b0108000640060000000e000fcff3a00ab
:100c30000080fa00000006000600fa001007980085
:100c4000210798008a40a9001602a80000000000b1
:100c5000b0108000610060000000e000fcff3a007e
:100c60008a40a900c0072000901088000000000002
:100c700050048000640060000000e000fcff3200cf
:100c80008a40a9000000eb00000f78001c0037002c
:100c90002e0090000000e9009e0f500003003a0073
:100ca000000420009010880003003700000c200092
:100cb0009010880000000000500480006400600074
:100cc0000000e000fcff32008a40a9001e0078000e
:100cd0009e00900000804000104078000000fb0063
:100ce0009010880000000000500480006400600044
:100cf0000000e000fcff32008a40a9001e0fe8005f
:100d00002e0090009e007800808f5000e0ff35009c
:100d10001642a80000000000b010800064006000cf
:100d20000000e000fcff3a000080fa00000006002e
:100d30000200fa00004f7800114798009e40900092
:100d4000600020008008dd001e40780080c0400068
:100d500000c8b30000c0400044ff07000080fa0054
:100d6000000006000600fa0010079800210798000e
:100d70000000eb00000f780004003700ae00900088
:100d80001e009000acff07001e0fe8001e00780058
:100d9000e40f5000f9ff34000080fa000000060064
:100da0000a00fa000028ef000228ef000428ef00f4
:100db0000628ef000828ef000a28ef000c28ef00b3
:100dc0000e28ef001028ef001228ef00100020007e
:100dd000000f78006000b800100798002107980005
:100de0006000b80030079800410798001428ef0011
:100df000010037000000000090408000e10f50002b
:100e00004b003a001228ef00600880000000e80064
:100e10006101b8000040800011408000009ab900d4
:100e200004027800028bb9008602780005024200b5
:100e30000010b800010242008400780032088000ef
:100e40008001eb00000041008180490030079800dc
:100e50004107980040408000514080003e019000d2
:100e6000ce01900000005100818059002040880090
:100e700031408800804080000000e8008040880009
:100e80001e007800e10f500003003a000000eb0064
:100e9000000f78002200370022408000334080009d
:100ea000f0bd2a0001002000800f5100818f590001
:100eb0000e003e00a0408000a14080006281200022
:100ec000e2c078000143b000014178006181200058
:100ed000827078000000eb00000f7800a0408000d6
:100ee0000000e800a04088000d003700a04080000e
:100ef000a140800062812000e2c078001143b00070
:100f00000141780061812000827078000000eb00d0
:100f1000000f7800a04080000000e800a04088009a
:100f20003e019000ce01900042408800534088006e
:100f3000600880000000e8006101b8000040800007
:100f400011408000009ab90004027800028bb900b9
:100f500086027800050242000010b800010242003b
:100f600084007800320880008001eb00000141001d
:100f700081814900404080005140800000015100c3
:100f80008181590080842e0011002000800f5100c3
:100f9000818f590097ff36000028ef000228ef00ec
:100fa0000621ef001428ef00300880008000eb00dd
:100fb0004040880051408800300880008000eb00ed
:100fc00060408800714088001228ef001000200067
:100fd000000f78000080fa00000006000200fa000e
:100fe000000f7800020037007e3e0900000000007c
:100ff0001e00780000f0a7000000ea000000ea00f0
:101000004f00de00004078001e0fe9000004e00001
:10101000f5ff3a000080fa00000006000000fa0028
:10102000c8c2a900c942a8002022ef000111800017
:1010300090ff2f0000806000001188002002a900ae
:101040002062a90070062000401188000111800074
:10105000f0cf2f00008060000011880021e2a8007e
:101060002342a800113a8000f00b200000816000ac
:10107000600420007105200023742000804978005e
:1010800081497800824978003136800000fe2f00c7
:10109000008060003000b3003036880021358000c9
:1010a00000fe2f0000806000a000b3002035880003
:1010b000103a8000000178000260a0006004200067
:1010c0007105200023742000804978008149780050
:1010d000824978008560a9008580a90023a2a90023
:1010e00023e2a9009580a8000080fa000000060015
:1010f0000000fa00c902a8006ac0a8001021ef0091
:101100000621ef0030422f0060088800810880002f
:1011100000032000010070008008880084e0a9001e
:1011200094e0a800113a8000f00b200000816000dc
:10113000600420007105200023742000804978009d
:1011400081497800824978007134800000fe2f00c8
:10115000008060000030a00070348800103a8000e9
:10116000000178000260a0006004200071052000ea
:1011700023742000804978008149780082497800f2
:101180004221ef0042e1a800110a800080ff2f00f9
:10119000008060000000a000100a88008420a900e0
:1011a0009420a80011e1a8000421ef000021ef0025
:1011b000f0cf27001008880021088000f0fc2f00e5
:1011c00000806000200888008460a9009460a80066
:1011d00005e1a9000080fa00000006000000fa0006
:1011e000213a8000f08f2f0000806000203a8800b4
:1011f000f0ff2900601988000080fa000000060056
:101200000200fa00f5ff0700b9ff070040fe0700e3
:1012100082ff070000c3b300004f7800e0fe070024
:101220006081200012fd0700004f780080c6b300e7
:10123000004f78008040eb000040eb00bcfe070050
:101240001e40780052fe07001e00fb00201188009f
:10125000803e200061ff0700d000200020118800a0
:0c126000a000200020118800ecff3700e7
:020000040000fa
:10126c001608000006000000000000001408000032
:10127c000200000000000000000800001400000044
:08128c0000000000000000005a
:020000040000fa
:020000040001f9
:0457f8000ff90000a5
:020000040000fa
:020000040001f9
:0457fc007f3f0000eb
:00000001FF
